:1000000019C1000045C1000043C1000041C100000A
:100010003FC100003DC100003BC1000039C10000EC
:1000200037C1000035C1000033C1000031C10000FC
:100030002FC100002DC100002BC1000029C100000C
:1000400027C1000025C1000023C1000021C100001C
:100050001FC100001DC100001BC10000F7C300004C
:1000600017C10000BDC3000092C3000011C1000011
:100070000FC100000DC100000BC1000009C100004C
:1000800007C1000005C1000003C1000001C100005C
:10009000FFC00000FDC00000FBC00000F9C0000070
:1000A000F7C00000F5C00000F3C00000F1C0000080
:1000B000EFC00000EDC00000EBC00000E9C0000090
:1000C000E7C00000E5C00000E3C00000E1C00000A0
:1000D000DFC00000DDC00000DBC00000D9C00000B0
:1000E000D7C0000090019301820186018A01CA01F4
:1000F00097019B01A101A501A901AF01B301B701BE
:10010000CA01BD01C101C501A906AE06B306BD06FF
:10011000C7064007D106D906E106EB06F506FF063D
:100120000E071807400722072C07360700000A0BA6
:1001300002090C0D0E080703040100000000000076
:1001400000000000000000000000000000000000AF
:10015000000000000000000012111000000000006C
:10016000000000000000000000000000000000008F
:10017000000000002200250028002B002E00310086
:10018000340002010000050108010B0100002100FC
:10019000240027002A002D00300033000101000058
:1001A000040107010A0105050505070508080808F7
:1001B000020202020A0A08080404040401010101FF
:1001C00001010101030303030303030304070707FA
:1001D0000C0C0C0C0C0C0C0C02020202060606069F
:1001E000060606060B0B0B0B0B0B0B0B010210206C
:1001F000200808102040102040800201020108045D
:1002000002010102040810204080804020100804F0
:100210000201800402018040201008040201080449
:10022000020101020408102040800102040810208D
:100230004080700411241FBECFEFD1E2DEBFCDBFDE
:1002400000E00CBF23E0A8E3B2E001C01D92AE3293
:10025000B207E1F712E0A0E0B2E0E2E4FFE000E084
:100260000BBF02C007900D92A833B107D9F711E078
:10027000CAE1D1E000E005C021970109802FFE010D
:1002800052D6C931D10780E00807B1F768D357C605
:10029000B7CEE5EFF1E02491EFEAF1E08491882315
:1002A00099F090E0880F991FFC01E457FE4FA5914B
:1002B000B491FC01EE58FE4F859194918FB7F8945C
:1002C000EC91E22BEC938FBF0895CF93C82FE5E319
:1002D000F1E04491E5EFF1E02491EFEAF1E094914F
:1002E000992309F46AC0442309F454C050E0FA0188
:1002F0003197E231F10508F04DC08827EE58FF4FE5
:100300008F4F11C6809180008F7707C08091800049
:100310008F7D03C080918000877F809380003AC0EA
:1003200084B58F7702C084B58F7D84BD33C0809142
:10033000B0008F7703C08091B0008F7D8093B000B4
:1003400029C0809190008F7707C0809190008F7DA9
:1003500003C080919000877F809390001BC08091A4
:10036000A0008F7707C08091A0008F7D03C080918F
:10037000A000877F8093A0000DC0309120013F77BF
:1003800007C0309120013F7D03C030912001377FAD
:1003900030932001E92FF0E0EE0FFF1FEE58FE4FE3
:1003A000A591B4918FB7F894EC91C11103C0209539
:1003B0002E2301C02E2B2C938FBFCF910895CF9267
:1003C000DF92EF92FF920F931F93CF93DF936C0115
:1003D0007A018B01C0E0D0E0CE15DF0589F0D801AD
:1003E0006D918D01D601ED91FC910190F081E02D90
:1003F000C6011995892B11F47E0102C02196ECCF1C
:10040000C701DF91CF911F910F91FF90EF90DF9087
:10041000CF900895089580E090E00895FC01538DF9
:10042000448D252F30E0842F90E0821B930B5417CE
:1004300010F0CF96089501970895FC01918D828D5B
:10044000981761F0828DDF01A80FB11D5D968C9128
:10045000928D9F5F9F73928F90E008958FEF9FEF33
:100460000895FC01918D828D981731F0828DE80FEF
:10047000F11D858D90E008958FEF9FEF0895FC01A9
:10048000918D228D892F90E0805C9F4F821B910976
:100490008F739927089589E492E0F1DF21E0892B99
:1004A00009F420E0822F0895FC01848DDF01A80F5C
:1004B000B11DA35ABF4F2C91848D90E001968F738C
:1004C0009927848FA689B7892C93A089B1898C91AB
:1004D00080648C93938D848D981306C00288F38971
:1004E000E02D80818F7D80830895EF92FF920F939E
:1004F0001F93CF93DF93EC0181E0888F9B8D8C8DD0
:10050000981305C0E889F989808185FD23C0F62EFE
:100510000B8D10E00F5F1F4F0F731127E02E8C8D96
:10052000E8120BC00FB607FCFACFE889F989808181
:1005300085FFF5CFCE01B8DFF2CF8B8DFE01E80F3E
:10054000F11DE35AFF4FF0820B8FEA89FB8980810E
:10055000806207C0EE89FF896083E889F98980811C
:100560008064808381E090E0DF91CF911F910F91B3
:10057000FF90EF900895CF93DF93EC01888D88234F
:10058000C1F0EA89FB89808185FD05C0A889B98908
:100590008C9186FD0EC00FB607FCF5CF808185FFDC
:1005A000F2CFA889B9898C9185FFEDCFCE017CDF90
:1005B000E8CFDF91CF91089580E090E0892B19F08A
:1005C0006ADF811125C080E090E0892B41F080E056
:1005D00090E0892B21F00E94000081111CC080E076
:1005E00090E0892B41F080E090E0892B21F00E947F
:1005F0000000811113C080E090E0892BA1F080E021
:1006000090E0892B81F00E94000081110AC00895BA
:100610000E940000D8CF0E940000E1CF0E9400009D
:10062000EACF0C94000008953FB7F89480913D0202
:1006300090913E02A0913F02B091400226B5A89B46
:1006400005C02F3F19F00196A11DB11D3FBFBA2F64
:10065000A92F982F8827820F911DA11DB11DBC01C4
:10066000CD0142E0660F771F881F991F4A95D1F789
:1006700008952FB7F8946091390270913A028091F1
:100680003B0290913C022FBF08958F929F92AF92B0
:10069000BF92CF92DF92EF92FF926B017C01E9DF74
:1006A0004B015C01C60ED71EE81EF91EE2DF68157D
:1006B00079058A059B0528F0C616D706E806F906CF
:1006C000A8F7FF90EF90DF90CF90BF90AF909F90F2
:1006D0008F90089530D46115710579F0FB01019078
:1006E0000020E9F73197AF01461B570BDC01ED9174
:1006F000FC910280F381E02D199480E090E0089550
:100700004F925F926F927F92EF92FF920F931F939F
:10071000CF93DF93CDB7DEB7A1970FB6F894DEBFC6
:100720000FBECDBF7C01FA01CB0119A2223008F423
:100730002AE08E010F5D1F4F422E512C612C712C2F
:10074000BF01A3019201CDD3F901CA0101501109E2
:100750006A3014F4605D01C0695CD8016C93232B8E
:10076000242B252B69F7B801C701B5DFA1960FB679
:10077000F894DEBF0FBECDBFDF91CF911F910F91D7
:10078000FF90EF907F906F905F904F9008951F9231
:100790000F920FB60F9211240BB60F922F933F9327
:1007A0004F935F936F937F938F939F93AF93BF9379
:1007B000EF93FF9389E492E077DEFF91EF91BF9191
:1007C000AF919F918F917F916F915F914F913F91E9
:1007D0002F910F900BBE0F900FBE0F901F9018958A
:1007E0001F920F920FB60F9211240BB60F922F93F8
:1007F0008F939F93EF93FF93E0915902F0915A02E8
:100800008081E0915F02F091600282FD12C09081D0
:10081000809162028F5F8F7320916302821751F083
:10082000E0916202F0E0E75BFD4F958F80936202FA
:1008300001C08081FF91EF919F918F912F910F9037
:100840000BBE0F900FBE0F901F9018951F920F9226
:100850000FB60F9211242F933F938F939F93AF93D3
:10086000BF938091390290913A02A0913B02B091DE
:100870003C023091380223E0230F2D3720F40196FB
:10088000A11DB11D05C026E8230F0296A11DB11DB3
:10089000209338028093390290933A02A0933B024E
:1008A000B0933C0280913D0290913E02A0913F02A4
:1008B000B09140020196A11DB11D80933D0290931D
:1008C0003E02A0933F02B0934002BF91AF919F912F
:1008D0008F913F912F910F900FBE0F901F90189501
:1008E000E9E4F2E01382128288EE93E0A0E0B0E047
:1008F00084839583A683B78384E092E09183808389
:1009000085EC90E09587848784EC90E097878687D4
:1009100080EC90E0918B808B81EC90E0938B828BCC
:1009200082EC90E0958B848B86EC90E0978B868BA5
:10093000118E128E138E148EE6EEF2E0168217825E
:1009400010861186128613861486158616861786DB
:10095000108A118A128A138A148A158A0895789443
:1009600084B5826084BD84B5816084BD85B58260B4
:1009700085BD85B5816085BD80916E008160809365
:100980006E001092810080918100826080938100CE
:1009900080918100816080938100809180008160DE
:1009A000809380008091B10084608093B100809139
:1009B000B00081608093B00080919100826080934C
:1009C00091008091910081608093910080919000CE
:1009D0008160809390008091A10082608093A1004B
:1009E0008091A10081608093A1008091A00081602E
:1009F0008093A000809121018260809321018091E9
:100A00002101816080932101809120018160809388
:100A1000200180917A00846080937A0080917A002E
:100A2000826080937A0080917A00816080937A005E
:100A300080917A00806880937A001092C1001092B1
:100A40002A0310922B0310922C0310922D03109264
:100A5000E8021092E9021092EA021092EB0268EBAF
:100A60007BE080E090E011DE89E492E0909329033E
:100A700080932803E0915902F0915A0282E080832A
:100A8000E0915502F09156021082E0915702F091E8
:100A9000580280E1808310926102E0915D02F09142
:100AA0005E0286E08083E0915B02F0915C028081CF
:100AB00080618083E0915B02F0915C0280818860BC
:100AC0008083E0915B02F0915C028081806880838A
:100AD000E0915B02F0915C0280818F7D8083C9DDB3
:100AE0006093E8027093E9028093EA029093EB022C
:100AF00062E172E08091280390912903ECDD6AE0C5
:100B000070E080E090E0C1DD81E08093FC02C1DB19
:100B100094EFC92EDD24D394E12CF12C05E311E0F0
:100B2000A8DD672B682B692B39F4A3DD62307105D2
:100B30008105910508F4F8C09CDD6093450270932F
:100B40004602809347029093480280904102909021
:100B50004202A0904302B0904402681579058A05CC
:100B60009B0540F4609341027093420280934302DC
:100B7000909344028090410290904202A0904302E0
:100B8000B09044029B01AC01281939094A095B095C
:100B900049015A013AEF83169104A104B10408F403
:100BA000C3C06093410270934202809343029093CA
:100BB0004402C092F402D092F502E092F602F09262
:100BC000F7021092F8021092F9021092FA021092B3
:100BD000FB028091EC029091ED02A091EE02B091A7
:100BE000EF028093F0029093F102A093F202B0938F
:100BF000F3023FDD6093EC027093ED028093EE020E
:100C00009093EF0236DD6093E8027093E9028093DF
:100C1000EA029093EB022DDD4B015C0164E272E08D
:100C2000809128039091290356DD2AE041E050E0AD
:100C300060E070E0809128039091290361DD6BE210
:100C400072E0809128039091290345DD2AE0B501E7
:100C5000A401809128039091290352DD6DE272E096
:100C6000809128039091290336DD8091EC029091C8
:100C7000ED02A091EE02B091EF02B501A401481B74
:100C8000590B6A0B7B0B2AE0809128039091290372
:100C900037DD6DE272E080912803909129031BDD1E
:100CA0004091EC025091ED026091EE027091EF02E2
:100CB0008091F0029091F102A091F202B091F302C2
:100CC000481B590B6A0B7B0B2AE0809128039091FB
:100CD000290316DD6FE272E08091280390912903C9
:100CE000FADCC7DCAB01BC012AE0809128039091BB
:100CF000290306DDC0912803D091290361E372E046
:100D0000CE01E9DC61E272E0CE01E5DC65E070E095
:100D100080E090E0BADCADDC6093EC027093ED0211
:100D20008093EE029093EF02C0E0D0E0B2DA209719
:100D300011F480E0AAC0F801849190E0FC013197A1
:100D4000E231F10508F09CC08827EC57FF4F8F4F28
:100D5000EAC084B5806884BDC7BD98C084B5806290
:100D600084BDC8BD93C0809180008068809380005E
:100D7000D0938900C093880089C0809180008062F0
:100D800080938000D0938B00C0938A007FC08091B5
:100D90008000886080938000D0938D00C0938C0089
:100DA00075C08091B00080688093B000C093B3009C
:100DB0006DC08091B00080628093B000C093B40099
:100DC00065C080919000806880939000D0939900D6
:100DD000C09398005BC080919000806280939000E7
:100DE000D0939B00C0939A0051C08091900088607E
:100DF00080939000D0939D00C0939C0047C0809149
:100E0000A00080688093A0008091A0008F7B8093D9
:100E1000A000D093A900C093A80038C08091A00082
:100E200080628093A000D093AB00C093AA002EC034
:100E30008091A00088608093A000D093AD00C09303
:100E4000AC0024C080912001806880932001D09361
:100E50002901C09328011AC08091200180628093EB
:100E60002001D0932B01C0932A0110C08091200152
:100E7000886080932001D0932D01C0932C0106C07F
:100E8000C038D1050CF455CF81E01FDACDDB2B0142
:100E90003C018FE0882E912CA12CB12CC5DBDC010C
:100EA000CB0184199509A609B709883E9340A1058D
:100EB000B10558F051E0851A9108A108B10888EEF3
:100EC000480E83E0581E611C711C81149104A1041A
:100ED000B10421F72196CF3FD10509F027CF6CDB74
:100EE0001FCEA1E21A2EAA1BBB1BFD010DC0AA1F1B
:100EF000BB1FEE1FFF1FA217B307E407F50720F083
:100F0000A21BB30BE40BF50B661F771F881F991FFD
:100F10001A9469F760957095809590959B01AC0146
:100F2000BD01CF010895EE0FFF1F881F8BBF0790F3
:100F3000F691E02D199481E090E0F89400C0F894C7
:020F4000FFCFE1
:100F4200000000007502DF010E02BB023F021D021B
:100F52003102564D4450565F317C315F564D4450FC
:100F6200560D0A00564D4450455F003A323A007C15
:080F7200005F564D445045009C
:00000001FF
